:020000040800F2
:1000000000800120256D0008790200087B020008AD
:100010007B0200087B0200087B0200080000000051
:10002000000000000000000000000000790200084D
:10003000790200080000000079020008E50A0008C3
:100040007B0200087B0200087B0200087B0200089C
:100050007B0200087B0200087B0200087B0200088C
:100060007B0200087B0200087B0200083D6C000850
:10007000096C0008D16B0008996B0008616B0008DF
:100080002D6B0008F56A00087B0200087B0200085F
:100090007B0200087B0200087B0200087B0200084C
:1000A000190E0008710E00087B0200087B02000890
:1000B000670E00085D0E0008530E00087B02000862
:1000C0007B0200087B0200087B0200087B0200081C
:1000D0007B0200081F0C0008150C00080B0C000820
:1000E0007B0200087B0200087B0200080B0E000860
:1000F000270E0008FD0D00087B020008BD6A0008FD
:100100007B0200087B020008490E00087B02000801
:10011000010C0008F70B00083F0E0008350E000820
:10012000856A0008516A0008196A0008E169000838
:10013000A96900087B0200087B0200087B02000816
:100140007B0200087B0200087B0200087B0200089B
:10015000756900083D69000805690008ED0B000895
:100160007B0200087B0200087B0200087B0200087B
:100170007B0200087B0200087B0200087B0200086B
:100180007B0200087B0200087B0200087B0200085B
:100190007B0200087B0200087B0200087B0200084B
:1001A0007B0200087B0200087B020008054B420925
:1001B00003EB820300F01F00012202FA00F0186036
:1001C000704700BF80E200E0054B420903EB820369
:1001D00000F01F00012202FA00F01860704700BF13
:1001E00080E100E0054B420903EB820300F01F00B1
:1001F000012202FA00F01860704700BF00E100E041
:10020000024A136823F001031360704710E000E016
:10021000024A136843F001031360704710E000E0E6
:10022000024A136823F002031360704710E000E0F5
:10023000024A136843F002031360704710E000E0C5
:10024000044A136800F0040023F00403034313601E
:10025000704700BF10E000E0024B186820F07F40BC
:10026000704700BF18E000E0024B20F07F401860AC
:10027000704700BF14E000E07047FEE7436943F0B9
:10028000800343617047C36823F40053C360704721
:10029000C36843F40053C3607047436923F4407359
:1002A000194341617047C36823F00C031943C160CF
:1002B0007047C36823F4C0631943C1607047036982
:1002C00023F44053194301617047C36808290CBFE8
:1002D00023F4805343F48053C3607047074A084BAC
:1002E00010B520F4806494421B6804BF054B1B6862
:1002F00003EB5103B3FBF1F1816010BD001001402D
:10030000080000200C00002041627047C162704765
:1003100081627047436823F0700343604368194368
:1003200041607047036823F001030360704703686E
:1003300043F0010303607047036823F00803036080
:100340007047036843F0080303607047036823F0B5
:1003500080030360704710B50468134324F45C7491
:100360000B432343036010BDC94301617047C36859
:1003700023EA0101C1607047C3681943C160704737
:10038000024B1868C0F38220704700BF0838024053
:10039000034A136823F0030318431060704700BF3B
:1003A0000838024006280AD8DFE800F004181D0AC1
:1003B0000F1416000E4A136823F080731360704701
:1003C0000B4A136823F48033F8E7094A136823F0D3
:1003D0000103F3E7074AF9E7074AF7E7044A136816
:1003E00023F08053EAE7024A136823F08063E5E7CD
:1003F00000380240703802407438024006280AD89B
:10040000DFE800F004181D0A0F1416000E4A1368E6
:1004100043F08073136070470B4A136843F48033D2
:10042000F8E7094A136843F00103F3E7074AF9E7DD
:10043000074AF7E7044A136843F08053EAE7024AA1
:10044000136843F08063E5E70038024070380240EB
:100450007438024010B5124A1249134C0628FDD8D0
:10046000DFE800F004161A0A0E1214001368C3F332
:100470004063002BF2D010BD1368C3F34043F8E78C
:100480001368C3F34003F4E72368FAE70B68F8E75F
:100490001368C3F34073ECE71368C3F3C063E8E782
:1004A000003802407438024070380240430903F1BA
:1004B000804303F50E3300F01F02196801209040BD
:1004C000014319601A6822EA000018607047430966
:1004D00003F1804303F50E3300F01F001A68012179
:1004E00001FA00F022EA000018607047430903F1A6
:1004F000804303F50E3300F01F021968012090407D
:100500000843186070470000F8B504460420FFF760
:1005100075FF0420FFF79EFF0020FFF739FFE37906
:10052000012B05D10320FFF769FF0320FFF792FF9E
:1005300040F61C00FFF7DAFF5149E37B0A68514D92
:10054000B4F802C050489B0322F440429BB21343CC
:100550000B602B68227B23F0F00343EA02132B602D
:100560002B68627B23F4E05343EA82232B602B68E1
:10057000A27B23F4604343EA4233444A2B6013686E
:1005800023F080731360E37922786779A179012BD6
:10059000237958D1022902F03F0247F6C07642F48F
:1005A000800206EA8C164FEA076738BF02215B0813
:1005B000324307F070670907013B3A4301F0E0411D
:1005C0001B040A4303F44033134303602F4A1368A8
:1005D00043F0807313600020FFF73CFFA36813F41F
:1005E000806F2B4B1A6814BF42F4806222F4806241
:1005F0001A60A36813F4007F254B1A6814BF42F4F5
:10060000007222F400721A601A68A16822F00F02C8
:100610000A431A600220FFF7BBFE2B68C3F3810375
:10062000022BFAD11B4B22691A601B4B62691A60BC
:100630001A4BA2691A60E379012B1FD10420BDE88F
:10064000F840FFF7AFBE022947F6C0764FEA0767CA
:1006500006EA8C1607F0706738BF02215B083E433C
:1006600002F03F020907013B324301F0E0411B0465
:100670000A4303F440331A430260A7E7F8BD00BF02
:100680000070004008380240043802400038024040
:10069000003C024004000020080000200C00002064
:1006A000430903F1804303F50E3300F01F001A687D
:1006B000012303FA00F0104214BF184600207047CF
:1006C000024B4AF6AA221A60704700BF0030004071
:1006D000024B186800F00100704700BF0C3000406A
:1006E000024B1868C0F34000704700BF0C30004058
:1006F000C20008B521D00023501E5FEA103CD9B2D9
:1007000003F1010317D1062919D80246FFF7E0FFCC
:100710000028FBD10C4B45F2555018600B48016086
:100720001946FFF7DDFF0028FBD145F255530B605A
:10073000074B1A6008BD5208DEE71146E6E740F6AF
:10074000FF720621E2E700BF0030004004300040A5
:1007500008300040024B4CF6CC421A60704700BF94
:1007600000300040F0B5076A466A00234FF00F0CD6
:1007700042FA03F4E50707D59D000CFA05F427EAD1
:10078000040701FA05F52F430133082BF0D14FF090
:100790000F0C42FA03F4E4070AD503F18044083C45
:1007A000A4000CFA04F526EA050601FA04F426432F
:1007B0000133102BEDD107624662F0BD012941687B
:1007C0000CBF19439943F0B54160816800240326AA
:1007D00043FA04F5ED0707D5650006FA05F721EAA7
:1007E000070102FA05F529430134102CF0D181608C
:1007F000F0BD2DE9F0410568C46800264FF0030EF6
:1008000043FA06F7FF070FD577000EFA07FC6FEAE9
:100810000C0C01FA07F80CEA05050CEA040402FACC
:1008200007F748EA05053C430136102EE8D105607C
:10083000C460BDE8F081436901EA030221EA0301D3
:1008400041EA024181617047816170471430182389
:1008500003FB01010A607047182303FB01010B69C8
:10086000D80704D503F44023B3F5402F00D1CA6163
:100870007047182303FB01010B69DB0758BF8A612E
:100880007047C1F3400210B5062301F001041201C4
:1008900013FB042220239340032994BF8360C36089
:1008A0001823103013FB0100036843F010030360AA
:1008B00010BD1823103003FB01010B681A430A60B6
:1008C00070471823103003FB01010B6843F4807359
:1008D0000B6070471823103003FB01010B6823F4F1
:1008E000004343F400730B6070471823103003FB80
:1008F00001010B6843F480630B60704718231030CC
:1009000003FB01010B6823F4C0530B600B681A430F
:100910000A6070471823103003FB01010B6823F4B1
:10092000C0430B600B681A430A60704718231030ED
:1009300003FB01010B6823F440330B600B681A437F
:100940000A60704710B51030182404FB0101802A9A
:100950000B680ABF23F4802323F0C00323F4E07361
:1009600013430B6010BD182313FB010310B51A6964
:1009700022F001021A6100221A61C3E906225A61BB
:100980001A6221225A62C1F34002062301F00104D7
:10099000120113FB042203294FF03D0303FA02F373
:1009A00095BF8268C2681343134394BF8360C360DA
:1009B00010BD10B50022134601FA02F403321E2ABC
:1009C00043EA0403F8D10361002201FA02F403327E
:1009D000182A43EA0403F8D1C36010BD836843F4C6
:1009E000007383607047836823F48063836070477B
:1009F000436823F04073194341607047836823F0D4
:100A000040538360704783680A4323F07C531A4342
:100A100082607047034A136823F440331843106020
:100A2000704700BF04230140836843F001038360E3
:100A30007047836843F4807383607047836843F032
:100A4000804300F10802836013685B00FCD47047A8
:100A50001029F0B50CD8002501232F462E46DCB214
:100A6000A14206D2013946EA0156C66207634563D0
:100A7000F0BD062C0BD802EB030C03EB830E1CF825
:100A800001CCAEF1050E0CFA0EFC45EA0C05A4F102
:100A9000070CBCF1050F0BD802EB030C03EB830E24
:100AA0001CF801CCAEF1230E0CFA0EFC47EA0C0741
:100AB0000D3C052C09D8D41803EB830C14F8014C19
:100AC000ACF1410C04FA0CF426430133C7E7436848
:100AD00043F4807343607047836823F001038360AD
:100AE0007047000080B400AF124B1B684FF080725B
:100AF000B2FBF3F2104B1B6813440F4A13600E4B0A
:100B00001B680E4A93428CBF01230023DBB2002BEB
:100B10000CD00B4B1B680133094A1360064B1B6852
:100B2000A3F57423A3F51073034A1360BD465DF863
:100B3000047B7047000000201C0100203F420F0092
:100B40001801002080B500AF044B1A68034B1B68E6
:100B50001B6808331B681046984780BD14010020AD
:100B600080B500AF044B1A68034B1B681B68083341
:100B70001B681046984780BD1001002080B500AF6B
:100B8000044B1A68034B1B681B6808331B6810462C
:100B9000984780BD0C01002080B500AF044B1A6857
:100BA000034B1B681B6808331B681046984780BDC1
:100BB0000801002080B500AF044B1A68034B1B6886
:100BC0001B6808331B681046984780BD040100204D
:100BD00080B500AF044B1A68034B1B681B680833D1
:100BE0001B681046984780BD0001002080B500AF0B
:100BF000FFF7A8FF80BD80B500AFFFF7B1FF80BD54
:100C000080B500AFFFF7BAFF80BD80B500AFFFF73A
:100C1000C3FF80BD80B500AFFFF7CCFF80BD80B5BE
:100C200000AFFFF7D5FF80BD80B500AF064B1B6856
:100C3000002B08D0044B1A68034B1B681B68083351
:100C40001B681046984780BDFC00002080B500AFAF
:100C5000064B1B68002B08D0044B1A68034B1B681B
:100C60001B6808331B681046984780BDF8000020B9
:100C700080B500AF064B1B68002B08D0044B1A68E8
:100C8000034B1B681B6808331B681046984780BDE0
:100C9000F400002080B500AF064B1B68002B08D085
:100CA000044B1A68034B1B681B6808331B6810460B
:100CB000984780BDF000002080B500AF064B1B6850
:100CC000002B08D0044B1A68034B1B681B680833C1
:100CD0001B681046984780BDEC00002080B500AF2F
:100CE000064B1B68002B08D0044B1A68034B1B688B
:100CF0001B6808331B681046984780BDE800002039
:100D000080B500AF064B1B68002B08D0044B1A6857
:100D1000034B1B681B6808331B681046984780BD4F
:100D2000E400002080B500AF064B1B68002B08D004
:100D3000044B1A68034B1B681B6808331B6810467A
:100D4000984780BDE000002080B500AF064B1B68CF
:100D5000002B08D0044B1A68034B1B681B68083330
:100D60001B681046984780BDDC00002080B500AFAE
:100D7000064B1B68002B08D0044B1A68034B1B68FA
:100D80001B6808331B681046984780BDD8000020B8
:100D900080B500AF064B1B68002B08D0044B1A68C7
:100DA000034B1B681B6808331B681046984780BDBF
:100DB000D400002080B500AF064B1B68002B08D084
:100DC000044B1A68034B1B681B6808331B681046EA
:100DD000984780BDD000002080B500AF064B1B684F
:100DE000002B08D0044B1A68034B1B681B680833A0
:100DF0001B681046984780BDCC00002080B500AF2E
:100E0000FFF75AFFFFF710FF80BD80B500AFFFF777
:100E100053FFFFF71BFF80BD80B500AFFFF7DCFF7E
:100E2000FFF726FF80BD80B500AFFFF745FFFFF756
:100E300031FF80BD80B500AFFFF750FF80BD80B5AA
:100E400000AFFFF75DFF80BD80B500AFFFF76AFF21
:100E500080BD80B500AFFFF777FF80BD80B500AFE4
:100E6000FFF784FF80BD80B500AFFFF791FF80BD25
:100E700080B500AFFFF7B0FFFFF79CFF80BD80B4E7
:100E800085B000AF78600023FB607B6803F020032F
:100E9000002B03D0FB6843F00103FB607B6803F089
:100EA0001003002B03D0FB6843F00203FB607B6858
:100EB00003F00D03002B03D0FB6843F00403FB6039
:100EC000FB6818461437BD465DF8047B704780B454
:100ED00085B000AF78600023FB607B6803F02003DF
:100EE000002B03D0FB6843F00103FB607B6803F039
:100EF0001003002B03D0FB6843F00203FB607B6808
:100F000003F00D03002B03D0FB6843F00403FB60E8
:100F1000FB6818461437BD465DF8047B704780B403
:100F200085B000AF78600023FB607B6803F020038E
:100F3000002B03D0FB6843F00103FB607B6803F0E8
:100F40001003002B03D0FB6843F00203FB607B68B7
:100F500003F00D03002B03D0FB6843F00403FB6098
:100F6000FB6818461437BD465DF8047B704780B4B3
:100F700085B000AF78600023FB607B6803F020033E
:100F8000002B03D0FB6843F00103FB607B6803F098
:100F90001003002B03D0FB6843F00203FB607B6867
:100FA00003F00D03002B03D0FB6843F00403FB6048
:100FB000FB6818461437BD465DF8047B704780B463
:100FC00085B000AF78600023FB607B6803F02003EE
:100FD000002B03D0FB6843F00103FB607B6803F048
:100FE0001003002B03D0FB6843F00203FB607B6817
:100FF00003F00D03002B03D0FB6843F00403FB60F8
:10100000FB6818461437BD465DF8047B704780B412
:1010100085B000AF78600023FB607B6803F020039D
:10102000002B03D0FB6843F00103FB607B6803F0F7
:101030001003002B03D0FB6843F00203FB607B68C6
:1010400003F00D03002B03D0FB6843F00403FB60A7
:10105000FB6818461437BD465DF8047B704780B4C2
:1010600085B000AF78600023FB607B6803F020034D
:10107000002B03D0FB6843F00103FB607B6803F0A7
:101080001003002B03D0FB6843F00203FB607B6876
:1010900003F00D03002B03D0FB6843F00403FB6057
:1010A000FB6818461437BD465DF8047B704780B472
:1010B00085B000AF78600023FB607B6803F02003FD
:1010C000002B03D0FB6843F00103FB607B6803F057
:1010D0001003002B03D0FB6843F00203FB607B6826
:1010E00003F00D03002B03D0FB6843F00403FB6007
:1010F000FB6818461437BD465DF8047B704780B422
:1011000085B000AF78600023FB607B6803F02003AC
:10111000002B03D0FB6843F00103FB607B6803F006
:101120001003002B03D0FB6843F00203FB607B68D5
:1011300003F00D03002B03D0FB6843F00403FB60B6
:10114000FB6818461437BD465DF8047B704780B4D1
:1011500085B000AF78600023FB607B6803F020035C
:10116000002B03D0FB6843F00103FB607B6803F0B6
:101170001003002B03D0FB6843F00203FB607B6885
:1011800003F00D03002B03D0FB6843F00403FB6066
:10119000FB6818461437BD465DF8047B704780B481
:1011A00085B000AF78600023FB607B6803F020030C
:1011B000002B03D0FB6843F00103FB607B6803F066
:1011C0001003002B03D0FB6843F00203FB607B6835
:1011D00003F00D03002B03D0FB6843F00403FB6016
:1011E000FB6818461437BD465DF8047B704780B431
:1011F00085B000AF78600023FB607B6803F02003BC
:10120000002B03D0FB6843F00103FB607B6803F015
:101210001003002B03D0FB6843F00203FB607B68E4
:1012200003F00D03002B03D0FB6843F00403FB60C5
:10123000FB6818461437BD465DF8047B704780B4E0
:1012400085B000AF78600023FB607B6803F020036B
:10125000002B03D0FB6843F00103FB607B6803F0C5
:101260001003002B03D0FB6843F00203FB607B6894
:1012700003F00D03002B03D0FB6843F00403FB6075
:10128000FB6818461437BD465DF8047B704780B490
:1012900085B000AF78600023FB607B6803F020031B
:1012A000002B03D0FB6843F00103FB607B6803F075
:1012B0001003002B03D0FB6843F00203FB607B6844
:1012C00003F00D03002B03D0FB6843F00403FB6025
:1012D000FB6818461437BD465DF8047B704780B440
:1012E00085B000AF78600023FB607B6803F02003CB
:1012F000002B03D0FB6843F00103FB607B6803F025
:101300001003002B03D0FB6843F00203FB607B68F3
:1013100003F00D03002B03D0FB6843F00403FB60D4
:10132000FB6818461437BD465DF8047B704780B4EF
:1013300085B000AF78600023FB607B6803F020037A
:10134000002B03D0FB6843F00103FB607B6803F0D4
:101350001003002B03D0FB6843F00203FB607B68A3
:1013600003F00D03002B03D0FB6843F00403FB6084
:10137000FB6818461437BD465DF8047B704780B49F
:1013800085B000AF78607B68D3F81431591C7A6857
:10139000C2F814117A68D35CFB737B68D3F81431FC
:1013A000B3F5887F03D17B680022C3F814217B68E2
:1013B000D3F810315A1E7B68C3F81021FB7B184606
:1013C0001437BD465DF8047B704780B483B000AF2E
:1013D000786039607B689B6C591C7A6891643A68C4
:1013E00011787A68D1547B689B6C03F03F027B686C
:1013F0009A647B681B6C5A1C7B681A640C37BD4668
:101400005DF8047B704780B483B000AF78607B6880
:10141000D3F81031002B0CBF01230023DBB2184698
:101420000C37BD465DF8047B704780B483B000AFD5
:1014300078607B681B6C18460C37BD465DF8047BF2
:10144000704780B483B000AF78607B681B6C402B22
:101450000CBF01230023DBB218460C37BD465DF8F4
:10146000047B704780B483B000AF78607B68184617
:101470000C37BD465DF8047B704780B483B000AF85
:1014800078607B681B6818460C37BD465DF8047BA6
:10149000704780B582B000AF78603B1D1846FFF7FB
:1014A000ECFF03461846FFF7DDFF034618460837F2
:1014B000BD4680BD80B483B000AF78607B681846BD
:1014C0000C37BD465DF8047B704780B483B000AF35
:1014D00078604FF0FF3318460C37BD465DF8047B4B
:1014E000704780B483B000AF786039607B683A6839
:1014F0001A607B6818460C37BD465DF8047B704760
:1015000080B483B000AF78607B6818460C37BD4666
:101510005DF8047B704780B582B000AF7860786872
:10152000FFF7D3FF034618460837BD4680BD80B499
:1015300083B000AF78607B6818460C37BD465DF815
:10154000047B704790B583B000AF786039607868ED
:10155000FFF7EDFF03461B681C463868FFF7E7FFFF
:1015600003461B68E31A18460C37BD4690BD80B48D
:1015700083B000AF786039603B681A687B681A6096
:101580007B6818460C37BD465DF8047B704780B514
:1015900084B000AF78607A6807F10C0311461846F2
:1015A000FFF7E5FFFB6818461037BD4680BD80B5E4
:1015B00084B000AF786007F10C0379681846FFF734
:1015C00090FFFB6818461037BD4680BD80B483B0DD
:1015D00000AF786039607B681A683B681B689A4284
:1015E00001D23B6800E07B6818460C37BD465DF8C9
:1015F000047B704780B582B000AF78607B68184686
:10160000FFF77EFF03461846FFF785FF034618469F
:101610000837BD4680BD80B584B000AF78607B6878
:101620001A1D07F10C0311461846FFF7A0FFFB68CF
:1016300018461037BD4680BD80B483B000AF7860D7
:101640007B6818460C37BD465DF8047B704780B454
:1016500083B000AF78607B6818460C37BD465DF8F4
:10166000047B704780B483B000AF78607B68184615
:101670000C37BD465DF8047B704780B483B000AF83
:1016800078607B6818460C37BD465DF8047B704770
:1016900080B483B000AF78607B6818460C37BD46D5
:1016A0005DF8047B704780B483B000AF78607B68DE
:1016B00000221A707B6800225A7000229A70002261
:1016C000DA7000221A710C37BD465DF8047B704752
:1016D00080B485B000AF78607B685B6C591C7A6819
:1016E00051647A68D35CFB737B685B6C03F03F02E8
:1016F0007B685A647B681B6C5A1E7B681A64FB7B90
:1017000018461437BD465DF8047B704780B483B03B
:1017100000AF78607B6818460C37BD465DF8047BE7
:101720007047000080B483B000AF7860034A7B68E4
:1017300013600C37BD465DF8047B7047C80000207D
:1017400080B483B000AF78607B6818460C37BD4624
:101750005DF8047B704780B483B000AF7860396077
:101760003B6818460C37BD465DF8047B704780B473
:1017700083B000AF786039607A683B6813441846DC
:101780000C37BD465DF8047B704780B483B000AF72
:10179000786039607A683B68134418460C37BD4658
:1017A0005DF8047B704780B483B000AF78607B68DD
:1017B00018460C37BD465DF8047B704780B582B093
:1017C00000AF78607868FFF758FF7B6818460837E5
:1017D000BD4680BD80B483B000AF78607B6818469A
:1017E0000C37BD465DF8047B7047000080B483B0C1
:1017F00000AF7860034A7B6813600C37BD465DF824
:10180000047B7047AC00002080B483B000AF7860E8
:101810007B681B6C002B0CBF01230023DBB2184636
:101820000C37BD465DF8047B704780B483B000AFD1
:10183000786039607B681A683B68134418460C3737
:10184000BD465DF8047B704780B483B000AF78601C
:101850007B685B681A467B681B68D31A18460C378E
:10186000BD465DF8047B704780B582B000AF7860FC
:101870007B681B6819467868FFF76DFF03461846BA
:101880000837BD4680BD80B582B000AF7860396052
:101890007B6839681846FFF76AFF03461846083721
:1018A000BD4680BD90B583B000AF7860786806F023
:1018B000D5FC03460C46184621460C37BD4690BD64
:1018C00080B582B000AF786039607B6839681846AF
:1018D000FFF75BFF034618460837BD4680BD000092
:1018E00080B485B000AF78600B467B807B8807EEC4
:1018F000903AB8EEE77ADFED0C6AC7EE267AC7EDCC
:10190000037AD7ED037AB0EE087AF4EEC77AF1EEF7
:1019100010FA01DD012300E0002318461437BD460C
:101920005DF8047B704700BFCA269B4280B483B039
:1019300000AF78607B6800221A707B680133002258
:101940001A607B6800225A717B6800229A717B685A
:101950000022DA717B6800221A727B6800225A72B8
:101960007B6800229A727B680022DA727B68002210
:101970001A730C37BD465DF8047B704780B483B0A2
:1019800000AF78607B6818460C37BD465DF8047B75
:10199000704780B483B000AF78607B68D3F8803044
:1019A000082B0CBF01230023DBB218460C37BD46C1
:1019B0005DF8047B704780B483B000AF786001238A
:1019C00018460C37BD465DF8047B704780B483B081
:1019D00000AF786039600C37BD465DF8047B704716
:1019E00080B483B000AF78607B6818460C37BD4682
:1019F0005DF8047B704780B582B000AF786078688E
:101A0000FFF7DCFE7B6800221A607B6800225A60C8
:101A10007B6800229A607B6818460837BD4680BD07
:101A200080B483B000AF78607B6818460C37BD4641
:101A30005DF8047B704780B483B000AF78607B684A
:101A4000D3F88030002B0CBF01230023DBB21846F3
:101A50000C37BD465DF8047B704780B582B000AF9F
:101A600078607B681846FFF789FF034618460837F9
:101A7000BD4680BD80B483B000AF786001231846B6
:101A80000C37BD465DF8047B704780B483B000AF6F
:101A9000786039607B681A683B681B689A4201D29B
:101AA0003B6800E07B6818460C37BD465DF8047B58
:101AB000704780B584B000AF7860396000214FF086
:101AC0008040FEF721FC0123BB603B68013BFB60CB
:101AD00007F10C0207F1080311461846FFF7D5FF7E
:101AE00003461B6819464FF08040FEF70FFC4FF08D
:101AF0008040FEF71CFC1037BD4680BD80B500AFAE
:101B000020210248FEF797FE80BD00BF0000024082
:101B100080B483B000AF7860012318460C37BD460F
:101B20005DF8047B704780B483B000AF78607B6859
:101B3000043318460C37BD465DF8047B704780B40B
:101B400083B000AF78607B685B7C18460C37BD467D
:101B50005DF8047B704790B583B000AF7860396062
:101B60003B6810331A887B685A807B6800225A745D
:101B70007B681B78002B04D17B6804331846FFF781
:101B8000D5FE7B681C793B681B8819467868FFF78F
:101B9000A7FE03461A467B681B7802FA03F3DBB202
:101BA0002343DAB27B681A713B6802331B885B08F7
:101BB0009BB21846FFF776FE03460C4618462146B0
:101BC00006F0B6FB0346DCB27B685A1D7B681B78C7
:101BD0005B08DBB219461046FFF772FE03461A781F
:101BE0002244D2B21A703B6804331B889B089BB214
:101BF0001846FFF757FE03460C461846214606F0E6
:101C000097FB0346DCB27B6803F109027B681B7813
:101C10009B08DBB219461046FFF735FE03461A78DB
:101C20002244D2B21A703B6806331B88DB089BB291
:101C30001846FFF737FE03460C461846214606F0C5
:101C400077FB0346DAB27B68DB7A1344DAB27B684F
:101C5000DA723B6808331B88DB089BB21846FFF733
:101C600021FE03460C461846214606F061FB03465A
:101C7000DAB27B681B7B1344DAB27B681A733B6869
:101C80000A331B88DB089BB21846FFF70BFE03469E
:101C90000C461846214606F04BFB0346DAB27B6839
:101CA0005B7B1344DAB27B685A733B680C331B8846
:101CB000DB089BB21846FFF7F5FD03460C461846B5
:101CC000214606F035FB0346DAB27B689B7B134462
:101CD000DAB27B689A733B680E331B88DB089BB2D1
:101CE0001846FFF7DFFD03460C461846214606F06E
:101CF0001FFB0346DAB27B68DB7B1344DAB27B68F6
:101D0000DA733B6810331B88DB089BB21846FFF779
:101D1000C9FD03460C461846214606F009FB03465A
:101D2000DAB27B681B7C1344DAB27B681A747B6876
:101D30001B780133DAB27B681A707B681B78072B3B
:101D400005D97B6801225A747B6800221A700C370F
:101D5000BD4690BD80B582B000AF78607B68184604
:101D6000FFF70CFE034618460837BD4680BD80B419
:101D700083B000AF78607B68303318460C37BD46BF
:101D80005DF8047B704780B483B000AF78600123B6
:101D900018460C37BD465DF8047B704780B483B0AD
:101DA00000AF78607B6818460C37BD465DF8047B51
:101DB000704780B582B000AF786039603968786864
:101DC000FFF704FE0837BD4680BD80B582B000AF86
:101DD00078607868FFF704FE7B6818460837BD46D0
:101DE00080BD80B582B000AF78607B681846FFF791
:101DF00002FE7B6818460837BD4680BD80B483B0BC
:101E000000AF786039607A683B68134418460C3735
:101E1000BD465DF8047B704780B483B000AF786046
:101E2000012318460C37BD465DF8047B704780B42B
:101E300083B000AF78607B6818460C37BD465DF80C
:101E4000047B704780B584B000AF786039607868F3
:101E5000FFF7EDFF03461B68FB603868FFF7E7FFFD
:101E600003461A687B681A6007F10C031846FFF7EF
:101E7000DEFF03461A683B681A601037BD4680BD16
:101E800080B483B000AF78607B6818460C37BD46DD
:101E90005DF8047B704780B584B000AF786039602E
:101EA0007868FFF7EDFF03461B68FB603868FFF7B3
:101EB000E7FF03461A687B681A6007F10C031846AF
:101EC000FFF7DEFF03461A683B681A601037BD460D
:101ED00080BD80B483B000AF78607B6818460C3753
:101EE000BD465DF8047B704780B584B000AF786074
:101EF00039607868FFF7EDFF024607F1080392E8C2
:101F0000030083E803003868FFF7E3FF02467B68BD
:101F100092E8030083E8030007F108031846FFF77F
:101F2000D8FF02463B6892E8030083E803001037BD
:101F3000BD4680BD80B582B000AF78600248FEF734
:101F4000F6F90837BD4680BD0004004080B483B078
:101F500000AF78607B6818460C37BD465DF8047B9F
:101F6000704780B483B000AF78607B6818460C3748
:101F7000BD465DF8047B704780B582B000AF7860E5
:101F80000B46FB70FB781B0119460348FEF7C2F9AC
:101F90000837BD4680BD00BF0004004080B582B058
:101FA00000AF78600B46FB70FB781B0119464FF0C1
:101FB0008040FEF7AFF90837BD4680BD80B483B0DE
:101FC00000AF78607B6818460C37BD465DF8047B2F
:101FD000704780B584B000AFF860B9607A60B968C6
:101FE000F868FFF7E6FE1037BD4680BD80B483B0C9
:101FF00000AF78607B6818460C37BD465DF8047BFF
:10200000704790B583B000AF786039607B685C68DA
:102010007B681846FFF7EAFF03461A4621463868F0
:10202000FFF7D7FF7B683A685A600C37BD4690BD12
:1020300080B582B000AF78607B681B68194678680D
:10204000FFF7DFFF0837BD4680BD80B582B000AF27
:1020500078607B6803F5D6731846FFF7E9FF083709
:10206000BD4680BD80B582B000AF78607868FFF76C
:10207000ACFE7B6818460837BD4680BD80B582B08F
:1020800000AF78607B681846FFF7ABFE7B681846A8
:102090000837BD4680BD80B582B000AF786039603A
:1020A0007B6839681846FFF7A9FE034618460837CB
:1020B000BD4680BD80B483B000AF78607B68012BE3
:1020C00005D0022B06D0002B07D1002307E04FF4E8
:1020D000803304E04FF4003301E04FF440331846FE
:1020E0000C37BD465DF8047B704780B483B000AF09
:1020F00078607B68012B02D0022B03D005E04FF4FF
:10210000006303E04FF4805300E0002318460C37CF
:10211000BD465DF8047B704780B483B000AF786043
:102120007B68012B02D0022B03D005E04FF4005353
:1021300003E04FF4804300E0002318460C37BD460F
:102140005DF8047B704780B483B000AF78607B6833
:10215000002B02D0012B02D003E0002302E0402339
:1021600000E0802318460C37BD465DF8047B7047BD
:1021700080B400AF38231846BD465DF8047B704735
:1021800080B400AF40F216231846BD465DF8047BCC
:10219000704780B400AF40F216631846BD465DF844
:1021A000047B704780B483B000AF78607B681846CA
:1021B0000C37BD465DF8047B704780B483B000AF38
:1021C00078607B680022C3F810217B680022C3F886
:1021D00014217B680022C3F818217B6818460C374D
:1021E000BD465DF8047B704780B483B000AF786073
:1021F0007B6800221A647B6800225A647B68002294
:102200009A647B6818460C37BD465DF8047B7047BE
:1022100080B483B000AF78607B68002B14BF0123CB
:102220000023DBB218460C37BD465DF8047B7047CF
:1022300080B500AFFEF7A4F80346002B0CBF0123C6
:102240000023DBB2002B02D0034B1B6802E0024BE1
:102250001B685B00184680BD0800002080B500AFF9
:10226000FEF78EF80346002B0CBF01230023DBB2E0
:10227000002B02D0034B1B6802E0024B1B685B0083
:10228000184680BD0800002080B582B000AF78609D
:1022900039607B683A6811461846FFF725FE7B686F
:1022A00003F108023B68083319461046FFF7F3FDB7
:1022B0007B6803F10C023B680C3319461046FFF7AC
:1022C000C1FD0837BD4680BD80B483B000AF7860E3
:1022D000034A7B6813600C37BD465DF8047B70478A
:1022E0000001002080B483B000AF7860034A7B68AF
:1022F00013600C37BD465DF8047B7047D8000020A2
:1023000080B582B000AF78600248FEF70BF808375E
:10231000BD4680BD0004004080B483B000AF78604B
:10232000034A7B6813600C37BD465DF8047B704739
:10233000D400002080B582B000AF78604FF08040BC
:10234000FDF7F0FF0837BD4680BD000080B582B0C4
:1023500000AF7860396039680248FEF749FB0837FA
:10236000BD4680BD0020014080B582B000AF7860DE
:102370000248FDF783FF0837BD4680BD00100140CD
:1023800080B483B000AF78603960054A7B681A601A
:102390007B6818460C37BD465DF8047B704700BF6C
:1023A0008088000880B483B000AF78607B6800222A
:1023B0001A707B68013300221A607B6800225A7110
:1023C0007B6800229A717B680022DA717B680022A8
:1023D0001A727B6800225A727B6800229A727B68AC
:1023E0000022DA727B6800221A737B6818460C3769
:1023F000BD465DF8047B704780B582B000AF786061
:102400007B6800221A707B6804331846FFF7CAFF06
:102410007B6800225A747B6818460837BD4680BD29
:1024200090B482B000AF78607A684FF000034FF04C
:102430000004C2E900347B6818460837BD4690BCEA
:10244000704790B482B000AF786039603B681B6819
:102450004FEAE3747A68C2E900347B6818460837AB
:10246000BD4690BC704780B400AF00231846BD46FF
:102470005DF8047B7047000080B483B000AF7860E3
:10248000044A7B681A607B6818460C37BD465DF8C5
:10249000047B70476088000880B400AF40F284433A
:1024A0001846BD465DF8047B7047000080B483B0D9
:1024B00000AF7860044A7B681A607B6818460C3766
:1024C000BD465DF8047B70478088000880B483B007
:1024D00000AF78607B68012B05D0022B06D0002B63
:1024E00007D1002307E04FF4803304E04FF40033BA
:1024F00001E04FF4403318460C37BD465DF8047BCD
:10250000704780B483B000AF78607B68012B02D045
:10251000022B03D005E04FF4006303E04FF4805337
:1025200000E0002318460C37BD465DF8047B704779
:1025300080B483B000AF78607B68012B02D0022B9F
:1025400003D005E04FF4005303E04FF4804300E074
:10255000002318460C37BD465DF8047B704780B4F5
:1025600083B000AF78607B68002B02D0012B02D0D3
:1025700003E0002302E0402300E0802318460C37EC
:10258000BD465DF8047B704780B400AF4623184613
:10259000BD465DF8047B704780B400AF40F216235F
:1025A0001846BD465DF8047B704780B400AF40F22A
:1025B00016631846BD465DF8047B704780B483B04F
:1025C00000AF78607B6818460C37BD465DF8047B29
:1025D000704780B400AF40F201431846BD465DF835
:1025E000047B704780B483B000AF7860044A7B6896
:1025F0001A607B6818460C37BD465DF8047B70474F
:102600009487000880B400AF4FF480631846BD463D
:102610005DF8047B7047000080B483B000AF786041
:10262000044A7B681A607B6818460C37BD465DF823
:10263000047B7047C886000880B483B000AF786020
:102640000C37BD465DF8047B704780B483B000AFA3
:1026500078607B6818460C37BD465DF8047B704790
:1026600080B483B000AF78607B6818460C37BD46F5
:102670005DF8047B704780B400AF40F688031846CD
:10268000BD465DF8047B704780B483B000AF7860CE
:10269000044A7B681A607B6818460C37BD465DF8B3
:1026A000047B70476088000880B400AF40F6840364
:1026B0001846BD465DF8047B7047000080B483B0C7
:1026C00000AF7860044A7B681A607B6818460C3754
:1026D000BD465DF8047B70478088000880B400AF79
:1026E00040F601031846BD465DF8047B70470000C4
:1026F00080B483B000AF7860044A7B681A607B685E
:1027000018460C37BD465DF8047B70479487000877
:1027100080B400AF4FF400631846BD465DF8047BFB
:102720007047000080B483B000AF7860044A7B68D3
:102730001A607B6818460C37BD465DF8047B70470D
:10274000C886000880B500AF20210248FEF77CF85B
:1027500080BD00BF0000024080B400AF40F2012302
:102760001846BD465DF8047B704780B400AF40F268
:1027700001631846BD465DF8047B704790B583B091
:1027800000AF0446084611461A462346FB7103462D
:10279000BB710B467B7113463B71FFF7E6FF0346A7
:1027A0001846FDF77DFF034683F00103DBB2002BE3
:1027B0000BD0FFF7DAFF03461846FDF797FEFFF749
:1027C000CBFF03461846FDF771FEBA79F97901236C
:1027D0000848FEF70EF8FB79012B02D0FB79022B9B
:1027E00005D13A79797901230248FDF7E7FF0C37E3
:1027F000BD4690BD0004024080B400AF4FF40073AA
:102800001846BD465DF8047B704780B400AF4FF4B6
:10281000C0631846BD465DF8047B704790B583B031
:1028200000AF0446084611461A462346FB7103468C
:10283000BB710B467B7113463B71FFF7E6FF034606
:102840001846FDF72DFF034683F00103DBB2002B92
:102850000BD0FFF7DAFF03461846FDF747FEFFF7F8
:10286000CBFF03461846FDF721FEBA79F9792023FC
:102870000848FDF7BEFFFB79012B02D0FB79022B44
:1028800005D13A79797920230248FDF797FF0C3773
:10289000BD4690BD0000024080B582B000AF034647
:1028A000FB71FB794FF4007219460348FDF75AFF9C
:1028B0000837BD4680BD00BF0000024080B400AFB5
:1028C0004FF400731846BD465DF8047B704780B432
:1028D00000AF4FF4C0631846BD465DF8047B7047F7
:1028E00090B583B000AF0446084611461A46234609
:1028F000FB710346BB710B467B7113463B71FFF7BF
:10290000E6FF03461846FDF7CBFE034683F00103BE
:10291000DBB2002B0BD0FFF7DAFF03461846FDF7BA
:10292000E5FDFFF7CBFF03461846FDF7BFFDBA797B
:10293000F9794FF400730948FDF75BFFFB79012B30
:1029400002D0FB79022B06D13A7979794FF40073E2
:102950000248FDF733FF0C37BD4690BD0000024032
:1029600080B582B000AF0346FB71FB794FF4806203
:1029700019460348FDF7F6FE0837BD4680BD00BF87
:102980000000024080B400AF4FF400731846BD460B
:102990005DF8047B704780B400AF4FF4C063184605
:1029A000BD465DF8047B704790B583B000AF044628
:1029B000084611461A462346FB710346BB710B4677
:1029C0007B7113463B71FFF7E6FF03461846FDF7A0
:1029D00067FE034683F00103DBB2002B0BD0FFF749
:1029E000DAFF03461846FDF781FDFFF7CBFF0346EC
:1029F0001846FDF75BFDBA79F9794FF48063094811
:102A0000FDF7F7FEFB79012B02D0FB79022B06D1F3
:102A10003A7979794FF480630248FDF7CFFE0C379D
:102A2000BD4690BD0000024080B483B000AF786026
:102A30007B6818460C37BD465DF8047B704780B54F
:102A400082B000AF786039603868FFF7EDFF034669
:102A50001A687B681A607B6818460837BD4680BDD7
:102A600080B500AF0420FDF7C9FC0420FDF7F2FC9F
:102A70000020FDF78DFC0020FDF794FC0320FDF7FE
:102A800091FC80BD80B500AF0148FDF73DFD80BDE4
:102A90006C86000880B483B000AF0823FB71082364
:102AA00018460C37BD465DF8047B704780B483B090
:102AB00000AF78607B6807491A460B4603CB10606D
:102AC00051601B78137200BF78680C37BD465DF803
:102AD000047B70477083000880B400AF024B184637
:102AE000BD465DF8047B70470410014080B487B098
:102AF00000AF0346B9607A60FB73BB687B617B689B
:102B00005A1E7A60002B14BF01230023DBB2002B76
:102B10000BD07B695A1C7A611A78FB7B5340DBB27D
:102B20001A46054B9B5CFB73E9E7FB7B18461C3799
:102B3000BD465DF8047B70476C85000880B400AF2B
:102B400072B6BD465DF8047B704780B500AFFFF7F5
:102B5000F5FF80BD80B400AF62B6BD465DF8047B72
:102B6000704780B500AFFFF7F5FF80BD80B582B03C
:102B700000AF7860FDF7A4FD0837BD4680BD80B585
:102B800088B000AF78607B6803F57A731846FFF76A
:102B9000EDFF4FF48053FB61FEF7B0FF7B68043319
:102BA0004FF480511846FEF784FF2037BD4680BDA4
:102BB00080B582B000AF78607B681B681846FFF76D
:102BC000DEFF0837BD4680BD80B582B000AF7860BB
:102BD00039600620FDF712FC0620FDF73BFC386843
:102BE000FDF786FDFDF7B6FDFDF772FD0346002BF0
:102BF00004D1FDF775FD0346002B01D0012300E051
:102C00000023002BF0D17B6818460837BD4680BDF5
:102C100090B482B000AF786039603B68D3E900348B
:102C20007A68C2E900347B6818460837BD4690BC14
:102C3000704790B482B000AF78607B68D3E900340D
:102C4000184621460837BD4690BC7047F0B587B09E
:102C500000AF786039607B68D3E90034C7E902349B
:102C600007F108031846FFF7E4FF05460E463B68E8
:102C7000D3E90034C7E9043407F110031846FFF71D
:102C8000D8FF03460C469D4276EB0403B4BF0123F4
:102C90000023DBB218461C37BD46F0BD80B582B0BC
:102CA00000AF7860396079683868FFF7CFFF034676
:102CB00083F00103DBB218460837BD4680BDF0B58E
:102CC0008BB000AFF860B9607A60BB68D3E90034BC
:102CD000C7E9063407F118031846FFF7AAFF0546AF
:102CE0000E467B68D3E90034C7E9083407F12003B6
:102CF0001846FFF79EFF0A4601464B1942EB0604B1
:102D0000C7E9043407F110031946F868FFF780FF9C
:102D1000F8682C37BD46F0BD90B482B000AF786043
:102D200039603B68D3E900347A68C2E900347B68D3
:102D300018460837BD4690BC704780B483B000AFDA
:102D400078607B6818460C37BD465DF8047B704799
:102D500080B582B000AF78607B681846FFF7EDFF62
:102D6000034618460837BD4680BD80B582B000AF27
:102D700078607868FFF7ECFF034618460837BD46D1
:102D800080BD80B582B000AF78607B681846FFF7E1
:102D9000ECFF034618460837BD4680BD80B483B0BB
:102DA00000AF78607B6818460C37BD465DF8047B41
:102DB000704780B582B000AF78607B6804331846F6
:102DC000FFF7ECFF034618460837BD4680BD80B5C7
:102DD00082B000AF78607868FFF7EBFF03461846D3
:102DE0000837BD4680BD80B582B000AF78607B6893
:102DF0001846FFF7ECFF034618460837BD4680BD6E
:102E000080B483B000AF78607B6818460C37BD464D
:102E10005DF8047B704780B582B000AF78603960A0
:102E20003868FFF7EDFF03461A687B681A607B6815
:102E300018460837BD4680BD90B583B000AF7860B6
:102E400039607C683868FFF7DBFF03461946204687
:102E5000FFF7E1FF7B6818460C37BD4690BD90B583
:102E600085B000AFF860B9607A60FC687868FFF7F9
:102E7000C7FF034619462046FFF7DEFFFB681C1D0F
:102E8000B868FFF7D1FD034619462046FFF7D7FD86
:102E9000FB6818461437BD4690BDB0B584B000AF8E
:102EA000F860B9607A60FC68B868FFF7BDFD054658
:102EB0007868FFF7A5FF03461A4629462046FFF724
:102EC000CEFFFB6818461037BD46B0BD90B585B043
:102ED00000AFF860B9607A60B868FFF7A5FD0446F6
:102EE0007868FFF78DFF03461A462146F868FFF71A
:102EF000D4FFF8681437BD4690BD000080B586B099
:102F000000AF7860174B1B68BB60174B1B687B6179
:102F1000FDF7A2F90346C3F180733B61BA68114B18
:102F20001B689A4204D1104B1B687A699A4201D0FF
:102F3000012300E00023002BE4D10C4B1B683A690D
:102F4000B2FBF3F27B691344FB607B6807F10C0270
:102F500007F108011846FFF7B9FF78681837BD4632
:102F600080BD00BF180100201C01002000000020CF
:102F70002DE9F04886B000AF786007F108031846E5
:102F8000FFF7BCFF07F108031846FFF72CFF0346C5
:102F90001B689B464FF0000C5B4664464FF00001F7
:102FA0004FF00002620142EAD36259010B46144617
:102FB000B3EB0B0364EB0C044FF000014FF0000285
:102FC000620242EAD35259020B46144613EB0B033A
:102FD00044EB0C044FF000014FF00002A20142EA62
:102FE00093629901C91A62EB04021BEB01054CEBD9
:102FF000020607F108031846FFF7C3FE03461B68E5
:1030000019464FF000024B1942EB0604C7E904349D
:1030100007F1100319467868FFF77EFE78681837C5
:10302000BD46BDE8F088B0B584B000AF78603960C7
:103030003B681C464FF0000507F108031846FFF7F0
:1030400097FF07F108031846FFF7F3FD02460B460A
:10305000A41A65EB030523462C467A68C2E90034BE
:103060001037BD46B0BD80B588B000AFC7E90001DC
:1030700007F108031846FFF77BFF07F11003184616
:10308000FFF776FF07F118033A4607F108011846E3
:10309000FFF715FE07F1180207F110031146184655
:1030A000FFF7FCFD0346002BE7D12037BD4680BD6E
:1030B00080B483B000AF78607B689B68002B0CBF46
:1030C00001230023DBB218460C37BD465DF8047BB4
:1030D000704780B582B000AF78607B681846FFF714
:1030E000E7FF034683F00103DBB218460837BD460D
:1030F00080BD80B582B000AF78607B681846FFF76E
:10310000D7FF034683F00103DBB218460837BD46FC
:1031100080BD80B582B000AF786039607868FFF715
:10312000E8FF034618460837BD4680BD80B582B02B
:1031300000AF78607B689B68002B05D07B689B683C
:1031400078687968032298477B6818460837BD4637
:1031500080BD80B582B000AF78607B681846FFF70D
:10316000E5FF7B6818460837BD4680BD80B582B054
:1031700000AF7860064A7B681A607B6804331846A3
:10318000FFF7E7FF7B6818460837BD4680BD00BFE4
:10319000A888000880B582B000AF7860054A7B68D7
:1031A0001A607B681846FFF7E1FF7B68184608370E
:1031B000BD4680BD208B000880B582B000AF78602E
:1031C000064A7B681A607B6804331846FFF7C1FF24
:1031D0007B6818460837BD4680BD00BFC888000818
:1031E00080B582B000AF7860054A7B681A607B6862
:1031F0001846FFF7E1FF7B6818460837BD4680BDDB
:10320000B888000880B582B000AF78607B68184647
:10321000FFF78CFF7B6818460837BD4680BD00006D
:1032200080B582B000AF78600F4A7B681A600F48A3
:10323000FDF752FCFFF71FFA03461846FDF747F962
:103240007B6820331846FFF7DDFF7B6804331846A0
:10325000FFF7C6FF7B681846FFF716FA7B6818462B
:103260000837BD4680BD00BF7088000800200140BF
:1032700080B582B000AF7860134A7B681A60134B48
:103280001B68124A23F0F00313602520FCF79CFF13
:103290000F48FCF7F8FFFFF707FA03461846FDF75B
:1032A00016F90020FFF710F87B6803F5B67318468F
:1032B000FFF7A8FF7B681846FFF700FA7B681846FF
:1032C0000837BD4680BD00BF948800080C1001403F
:1032D0000010014080B582B000AF7860114A7B6871
:1032E0001A607868FFF70CF81D20FCF76DFF0121CC
:1032F0000D48FDF73CF8FFF7F1F903461846FDF7D6
:10330000E6F80020FEF7EEFF7B6804331846FFF76F
:1033100079FF7B681846FFF7EBF97B68184608379A
:10332000BD4680BD4C8800080004004080B582B0D6
:1033300000AF7860124A7B681A607868FEF7FAFF7F
:103340001C20FCF741FF01214FF08040FDF70FF8F2
:10335000FFF7DEF903461846FDF7B9F80020FEF73F
:10336000DBFF7B6804331846FFF74CFF7B68184689
:10337000FFF7D8F97B6818460837BD4680BD00BF07
:103380008087000890B583B000AF78607B68002B21
:103390000AD07B6803F180047B689C4204D0103C17
:1033A0002046FFF72FFFF7E77B6818460C37BD462E
:1033B00090BD80B582B000AF78607B688C331846D2
:1033C000FFF720FF7B681846FFF7DCFF7B68184695
:1033D0000837BD4680BD80B483B000AF78607B689D
:1033E00000229A607B6818460C37BD465DF8047B66
:1033F000704780B582B000AF78607B681846FFF7F1
:10340000EAFF7B6818460837BD4680BDB0B582B07C
:1034100000AF78607B6807241D46002C05DB28463A
:10342000FFF7E7FF1035013CF7E77B680022C3F8A0
:1034300080207B680022C3F884207B680022C3F8C8
:1034400088207B6818460837BD46B0BD80B582B07D
:1034500000AF786039607B681846FFF7BCFF3868BA
:10346000FFF737FE0346002B0DD03B689B6878685A
:103470003968022298473B68DA687B68DA603B6803
:103480009A687B689A607B6818460837BD4680BD9D
:1034900080B582B000AF78603960074A7B681A60F7
:1034A0007B68043339681846FFF7D0FF7B681846FD
:1034B0000837BD4680BD00BFC888000890B589B0F8
:1034C00000AFF860B9607A60FB70FC6807F1100328
:1034D000F96B1846FFF7BAFF07F1100319462046AB
:1034E000FFF7D6FF07F110031846FFF732FE5F4AD9
:1034F000FB681A60BB68012B0CBF01230023DAB202
:10350000FB681A76FEF745FE03461846FDF7C8F835
:10351000034683F00103DBB2002B0BD0FEF739FE2C
:1035200003461846FCF7E2FFFEF72AFE034618465C
:10353000FCF7BCFFFEF71CFE03461846FCF736FE00
:10354000FEF716FE03461846FCF74CFE00214848DD
:10355000FDF709FABB6B5B061A4600214448FDF7EC
:10356000A8F9B868FEF7EFFD03461A460021404867
:10357000FDF7E8F9FB681B7E002B12D07868FEF798
:10358000CBFD03461A4600213948FDF7C3F9386BD5
:10359000FEF7ABFD03461A4600213548FDF7AEF9AC
:1035A00011E0386BFEF7B8FD03461A46002130489B
:1035B000FDF7B0F97868FEF798FD03461A4600213A
:1035C0002B48FDF79BF9FB78002B03D0FB681B7E93
:1035D000002B0AD197F83430002B0AD0FB681B7EF1
:1035E00083F00103DBB2002B03D000212048FDF75C
:1035F0007CF9FB78002B06D0FB681B7E83F001036F
:10360000DBB2002B07D197F83430002B07D0FB68D2
:103610001B7E002B03D000211548FDF75BF997F8BE
:103620004030002B03D000211148FDF74AF9FB6818
:1036300004331846FFF74DFD0346002B03D000214D
:103640000B48FDF71EF9786CFEF734FD03461A4669
:1036500000210748FDF76AF9064B1A68FB685A61B2
:10366000FB6818462437BD4690BD00BFB8880008E7
:10367000006402401064024080B582B000AF786000
:103680003960074A7B681A607B68043339681846DA
:10369000FFF7DCFE7B6818460837BD4680BD00BFDB
:1036A000A888000880B582B000AF78603960084A09
:1036B0007B681A607B681A1D3B6804331946104604
:1036C000FFF7C4FE7B6818460837BD4680BD00BFC3
:1036D000A888000880B582B000AF786039607B6848
:1036E0003A6811461846FFF7DDFF084A7B681A6002
:1036F0003B685A697B685A613B681A7E7B681A7618
:103700007B6818460837BD4680BD00BF208B000887
:1037100090B589B000AFF860B9607A60FB70FC6862
:1037200007F11003F96B1846FFF790FE07F110033D
:1037300019462046FFF7A0FF07F110031846FFF7D0
:1037400008FD5F4AFB681A60BB68012B0CBF0123B0
:103750000023DAB2FB681A76FEF727FF0346184605
:10376000FCF79EFF034683F00103DBB2002B0BD076
:10377000FEF71BFF03461846FCF7B8FEFEF70CFFEA
:1037800003461846FCF792FEFEF7FEFE0346184677
:10379000FCF70CFDFEF7F8FE03461846FCF722FD89
:1037A00007214848FDF7DFF8BB6B5B061A46072187
:1037B0004448FDF77EF8B868FEF7D1FE03461A4686
:1037C00007214048FDF7BEF8FB681B7E002B12D096
:1037D0007868FEF7ADFE03461A4607213948FDF723
:1037E00099F8386BFEF78DFE03461A4607213548D7
:1037F000FDF784F811E0386BFEF79AFE03461A468F
:1038000007213048FDF786F87868FEF77AFE034610
:103810001A4607212B48FDF771F8FB78002B03D0DF
:10382000FB681B7E002B0AD197F83430002B0AD09E
:10383000FB681B7E83F00103DBB2002B03D0072162
:103840002048FDF752F8FB78002B06D0FB681B7E62
:1038500083F00103DBB2002B07D197F83430002B43
:1038600007D0FB681B7E002B03D007211548FDF70E
:1038700031F897F84030002B03D007211148FDF7AD
:1038800020F8FB6804331846FFF723FC0346002B9F
:1038900003D007210B48FCF7F4FF786CFEF716FE07
:1038A00003461A4607210748FDF740F8064B1A68F9
:1038B000FB685A61FB6818462437BD4690BD00BFBF
:1038C000208B000800640240B864024080B582B0DA
:1038D00000AF786039607B681846FFF77CFD386878
:1038E000FFF707FC0346002B0DD03B689B68786808
:1038F0003968022298473B68DA687B68DA603B687F
:103900009A687B689A607B6818460837BD4680BD18
:1039100080B582B000AF786039603B68D3F88430FE
:10392000591C3A68C2F884101B013A6813441946BE
:103930007868FFF7CBFF3B68D3F8843003F00702C9
:103940003B68C3F884203B68D3F880305A1E3B683C
:10395000C3F8802000BF78680837BD4680BD80B5B9
:1039600086B000AF7860396007F1080339681846FF
:10397000FFF7ACFF07F1080379681846FEF784FCEF
:1039800007F108031846FFF73DFC7B681846183717
:10399000BD4680BD80B582B000AF786039607B687D
:1039A000D3F88830591C7A68C2F888101B017A68ED
:1039B000134439681846FFF7D2FF7B68D3F8883084
:1039C00003F007027B68C3F888207B68D3F8803057
:1039D0005A1C7B68C3F880200837BD4680BD80B57F
:1039E00082B000AF786039607B6803F5B6733968E0
:1039F0001846FFF7B4FF0837BD4680BD80B582B0DA
:103A000000AF786039607B68203339681846FFF76B
:103A1000A6FF0837BD4680BD80B582B000AF786094
:103A200039607B68043339681846FFF798FF7B6874
:103A300004331846FFF75DFB0346002B05D0012138
:103A40004FF08040FCF798FC04E001214FF08040EB
:103A5000FCF78DFC0837BD4680BD80B582B000AF55
:103A6000786039607B681846FFF7D0FC7B688C3340
:103A700039681846FFF72AFF7B6818460837BD46A5
:103A800080BD000080B582B000AF786039607B688F
:103A90003A6811461846FEF773FC124A7B681A60B2
:103AA0007A683B68101D04334C22194603F0DAFA99
:103AB0007A683B6802F1500050334FF48E72194619
:103AC00003F0D0FA7B6803F5B6723B6803F5B67372
:103AD00019461046FFF7FAFE7B6818460837BD46C0
:103AE00080BD00BF9488000880B584B000AFF86046
:103AF000B9607A603B60FB68B9681846FFF7C2FF9F
:103B0000FB6803F5BE7379681846FFF7E3FDFB68B1
:103B10003A68C3F89821FB68BA69C3F89C21FB682E
:103B200003F5D0731846FEF7A9FAFB6803F5D673C0
:103B30001846FEF7A3FAFB68002283F8B821FB6859
:103B4000002283F8B921002283F8BA21002283F8E9
:103B5000BB21002283F8BC21FB680022C3F8C021EE
:103B6000FB6818461037BD4680BD000080B584B0A4
:103B700000AFF860B9607A60FB681846FEF796FC03
:103B8000274AFB681A60FB6804331846FEF72CFBD3
:103B9000FB6850331846FEF710FBFB6803F5B6735D
:103BA00079681846FFF792FEFB681846FEF78CFB13
:103BB000FEF77AFD03461846FCF798FCFEF76CFC0E
:103BC00003461846FCF772FCB9681648FCF786FBFA
:103BD00008211448FCF779FB00211248FCF76FFB21
:103BE0000C211048FCF75FFB00210E48FCF761FB3D
:103BF00000210C48FCF751FB0B4B1B680A4A43F0B1
:103C0000300313600748FCF743FB2520FCF7CEFA8E
:103C10002520FCF7E7FAFB6818461037BD4680BD43
:103C200094880008001001400C10014080B582B05B
:103C300000AF786039607B681846FFF7CCFB7B6883
:103C400018460837BD4680BD80B483B000AF7860A9
:103C50007B6818460C37BD465DF8047B704780B51D
:103C600082B000AF78607868FFF7EEFF0346184631
:103C70000837BD4680BD80B584B000AF78607868F5
:103C8000FFF7EDFF03461846FDF7ECFCF860FB6814
:103C900018461037BD4680BD80B582B000AF786051
:103CA0007868FFF7E8FF03461846FEF781FF0837FC
:103CB000BD4680BD80B582B000AF78607868FFF700
:103CC000C3FF034618460837BD4680BD80B584B0A3
:103CD00000AF78607868FFF7EDFF03461846FDF700
:103CE000D7FCF860FB6818461037BD4680BD80B52C
:103CF00082B000AF78607868FFF7A6FF03461846E9
:103D00000837BD4680BD80B584B000AF7860786864
:103D1000FFF7EDFF03461846FDF7F8FCF860FB6877
:103D200018461037BD4680BD80B582B000AF7860C0
:103D30007868FFF789FF034618460837BD4680BDFF
:103D400080B584B000AF78607868FFF7EDFF034678
:103D50001846FDF728FDF860FB6818461037BD4689
:103D600080BD80B582B000AF78607868FFF76CFFE7
:103D7000034618460837BD4680BD80B584B000AF05
:103D800078607868FFF7EDFF03461846FDF722FDDF
:103D9000F860FB6818461037BD4680BD80B582B01C
:103DA00000AF78607868FFF74FFF03461846083782
:103DB000BD4680BD80B584B000AF78607868FFF7FD
:103DC000EDFF03461846FDF72BFEF860FB6818462A
:103DD0001037BD4680BD90B583B000AF78603960C4
:103DE0007868FFF7E7FF03461C683868FFF708F8B4
:103DF00003461B681846A0470C37BD4690BD80B4EB
:103E000083B000AF78607B6818460C37BD465DF81C
:103E1000047B704780B582B000AF78607868FFF7A8
:103E2000EEFF034618460837BD4680BD80B582B018
:103E300000AF786039707868FFF7ECFF0837BD464F
:103E400080BD80B582B000AF78607868FFF7D7FF9B
:103E5000034618460837BD4680BD80B582B000AF26
:103E6000786039707868FFF7ECFF0837BD4680BD91
:103E700080B582B000AF78607868FFF7C0FF034676
:103E800018460837BD4680BD80B582B000AF786067
:103E900039707868FFF7ECFF0837BD4680BD80B504
:103EA00082B000AF78607868FFF7A9FF0346184634
:103EB0000837BD4680BD80B582B000AF78603970EC
:103EC0007868FFF7ECFF0837BD4680BD80B582B04B
:103ED00000AF78607868FFF792FF0346184608370E
:103EE000BD4680BD80B582B000AF78607868FFF7CE
:103EF00086FF034618460837BD4680BD80B582B0B0
:103F000000AF786039707868FFF7ECFF0837BD467E
:103F100080BD80B582B000AF78607868FFF76FFF32
:103F2000034618460837BD4680BD80B582B000AF55
:103F300078607868FFF763FF034618460837BD4688
:103F400080BD80B582B000AF78607868FFF757FF1A
:103F5000034618460837BD4680BD80B582B000AF25
:103F600078607868FFF74BFF034618460837BD4670
:103F700080BD80B582B000AF78607868FFF73FFF02
:103F8000034618460837BD4680BD80B582B000AFF5
:103F9000786039707868FFF7ECFF0837BD4680BD60
:103FA00080B582B000AF78607868FFF728FF0346DD
:103FB00018460837BD4680BD80B400AF4FF0FF33D0
:103FC0001846BD465DF8047B704790B587B000AFDA
:103FD00078607B68D3E900341C4607F10803184673
:103FE000FEF7C6FF07F108031846FEF722FE024659
:103FF0000B46134623447B61FFF7DEFF02467B69D5
:10400000934234BF01230023DBB2002B01D07B6934
:1040100002E0FFF7D1FF034618461C37BD4690BDAE
:1040200080B400AF4FF6FF731846BD465DF8047BC1
:10403000704780B483B000AF786039603B68184641
:104040000C37BD465DF8047B704790B585B000AF76
:10405000F860B9607A607868FDF7F9FA03461C7871
:10406000BB6819460120FFF7E4FF0346002B01D08F
:1040700022461A701437BD4690BD80B584B000AF9B
:10408000F860B9607A607868FDF7E1FA03461A468D
:10409000B968F868FFF7D9FF1037BD4680BD90B505
:1040A00085B000AFF860B9607A607868FDF7C4FA4F
:1040B00003461C78BB6819460120FFF7BAFF034688
:1040C000002B01D022461A701437BD4690BD80B532
:1040D00084B000AFF860B9607A607868FDF7ACFA38
:1040E00003461A46B968F868FFF7D9FF1037BD468E
:1040F00080BD90B585B000AFF860B9603A71B8681E
:10410000FFF7ADFD0446F868FFF779FE0346194650
:104110000420FFF78EFF0346002B01D022681A60AF
:104120001437BD4690BDB0B586B000AFF860B96039
:104130001346FB71FB79022B0DD0032B11D0012B01
:1041400013D1F868FFF7C2FE0446B868FFF793FD85
:104150000346236009E02A46B968F868FFF7C9FFFB
:1041600003E02146F868FFF761FE00231846183780
:10417000BD46B0BD90B585B000AFF860B9603A718A
:10418000B868FDF70BFE0446F868FFF738FE0346F3
:1041900019460420FFF74DFF0346002B01D022688B
:1041A0001A601437BD4690BD90B585B000AF7860F9
:1041B00039603868FDF7F2FD0346224619467868F3
:1041C000FFF7D8FF1437BD4690BD000090B583B00F
:1041D00000AF786039607B681846FFF7FCF83B4613
:1041E0001846FDF7E8FB0346002B0FD07C683B46E2
:1041F0001846FDF7D3FD034619462046FFF7D4FFC6
:104200007B68054ADA607B68044A9A607B681846D6
:104210000C37BD4690BD00BF993C000827410008FF
:1042200090B585B000AFF860B9603A71B868FFF733
:1042300041FD0446F868FFF7E2FD034619460420F5
:10424000FFF7F7FE0346002B01D022681A601437EF
:10425000BD4690BDB0B586B000AFF860B9601346FA
:10426000FB71FB79022B0DD0032B11D0012B13D145
:10427000F868FFF74EFE0446B868FFF727FD0346CF
:10428000236009E02A46B968F868FFF7C9FF03E030
:104290002146F868FFF7E1FD002318461837BD46B0
:1042A000B0BD90B585B000AFF860B9603A71B8683C
:1042B000FDF74CFE0446F868FFF7A1FD03461946DA
:1042C0000420FFF7B6FE0346002B01D022681A60D7
:1042D0001437BD4690BD90B585B000AF78603960A9
:1042E0003868FDF733FE0346224619467868FFF723
:1042F000D8FF1437BD4690BD90B583B000AF78604D
:1043000039607B681846FFF766F83B461846FDF7AC
:10431000B1FB0346002B0FD07C683B461846FDF7E7
:1043200015FE034619462046FFF7D5FF7B68054A70
:10433000DA607B68044A9A607B6818460C37BD4691
:1043400090BD00BF256300085542000890B585B0B8
:1043500000AFF860B9603A71B868FFF7C8FC04466E
:10436000F868FFF74CFD034619460420FFF761FE8D
:104370000346002B01D022681A601437BD4690BD59
:10438000B0B586B000AFF860B9601346FB71FB7939
:10439000022B0DD0032B11D0012B13D1F868FFF79E
:1043A000C4FD0446B868FFF7AEFC0346236009E08D
:1043B0002A46B968F868FFF7C9FF03E02146F868A4
:1043C000FFF762FD002318461837BD46B0BD90B513
:1043D00085B000AFF860B9603A71B868FDF7C1FD0B
:1043E0000446F868FFF70BFD034619460420FFF763
:1043F00020FE0346002B01D022681A601437BD4608
:1044000090BD90B585B000AF786039603868FDF731
:10441000A8FD0346224619467868FFF7D8FF1437EF
:10442000BD4690BD90B583B000AF786039607B68C1
:104430001846FEF7D0FF3B461846FDF769FB0346DA
:10444000002B0FD07C683B461846FDF78AFD0346DB
:1044500019462046FFF7D5FF7B68054ADA607B687E
:10446000044A9A607B6818460C37BD4690BD00BF71
:10447000C56500088143000890B585B000AFF860BD
:10448000B9603A71B868FFF74FFC0446F868FFF767
:10449000B6FC034619460420FFF7CBFD0346002B6C
:1044A00001D022681A601437BD4690BDB0B586B001
:1044B00000AFF860B9601346FB71FB79022B0DD099
:1044C000032B11D0012B13D1F868FFF73AFD0446F6
:1044D000B868FFF735FC0346236009E02A46B9684F
:1044E000F868FFF7C9FF03E02146F868FFF7E3FC2F
:1044F000002318461837BD46B0BD90B585B000AF53
:10450000F860B9603A71B868FDF758FD0446F8687C
:10451000FFF775FC034619460420FFF78AFD0346A2
:10452000002B01D022681A601437BD4690BD90B5AB
:1045300085B000AF786039603868FDF73FFD03460D
:10454000224619467868FFF7D8FF1437BD4690BD5C
:1045500090B583B000AF786039607B681846FEF78D
:104560003AFF3B461846FDF70EFC0346002B0FD0E2
:104570007C683B461846FDF721FD03461946204658
:10458000FFF7D5FF7B68054ADA607B68044A9A60CA
:104590007B6818460C37BD4690BD00BF4F520008DF
:1045A000AD44000890B585B000AFF860B9603A71CD
:1045B000B868FFF7D6FB0446F868FFF720FC03460F
:1045C00019460420FFF735FD0346002B01D0226871
:1045D0001A601437BD4690BDB0B586B000AFF86024
:1045E000B9601346FB71FB79022B0DD0032B11D060
:1045F000012B13D1F868FFF7B0FC0446B868FFF749
:10460000BCFB0346236009E02A46B968F868FFF757
:10461000C9FF03E02146F868FFF770FC0023184645
:104620001837BD46B0BD90B585B000AFF860B96031
:104630003A71B868FDF7B6FD0446F868FFF7DFFB8E
:10464000034619460420FFF7F4FC0346002B01D073
:1046500022681A601437BD4690BD90B585B000AF92
:10466000786039603868FDF79DFD0346224619469B
:104670007868FFF7D8FF1437BD4690BD90B583B07A
:1046800000AF786039607B681846FEF7A4FE3B46B1
:104690001846FDF7C1FB0346002B0FD07C683B4654
:1046A0001846FDF77FFD034619462046FFF7D5FF64
:1046B0007B68054ADA607B68044A9A607B68184622
:1046C0000C37BD4690BD00BF634E0008D9450008B9
:1046D000B0B59CB006AFF860384680E80E00FB68C5
:1046E0001846FDF7C9FE554AFB681A60FB681C1D99
:1046F000FDF7B9FE0546FA6807F120031146184692
:10470000FFF7BCFF032305930123049307F1200364
:1047100003930295012301930123009300230122B7
:1047200000212046FEF7CAFE07F120031846FEF7D7
:1047300010FDFB682033F96E1846FFF7C7F8FB68D9
:10474000303300221A605A609A60DA601A823C4B59
:1047500000221A603B4B00221A603B4B00221A6079
:104760000323FB6307F13C0207F1300311461846AF
:10477000FDF767FED7E90C01FEF775FCFDF77BFF3F
:1047800003461846FBF7B2FE0020FCF743F92E481B
:10479000FCF79DF92C48FCF726F907212A48FCF77D
:1047A00008F900237B657B6D082B10D83B46796D9B
:1047B0001846FDF770FC0346197807F114027B6D6B
:1047C00013440A461A707B6D01337B65EBE707F1F2
:1047D00014031A4609211C48FCF73AF997F8683087
:1047E0000F2B03D11848FCF709F90AE097F8683055
:1047F0003B653B6D1B064FF0805219461248FCF793
:1048000002F91148FCF715F90F48FCF7E7F80E48D4
:10481000FCF70AF90A23FB6407F14C0207F1400395
:1048200011461846FDF70DFED7E91001FEF71BFCF7
:10483000FB6818465837BD46B0BD00BF70880008F9
:1048400008200140042001400020014090B585B0BF
:1048500000AFF860B9603A71B868FFF79FFA034695
:104860001C68F868FFF7CBFA034619460420FFF7E7
:10487000E0FB0346002B00D01C601437BD4690BD02
:10488000B0B586B000AFF860B9601346FB71FB7934
:10489000022B0DD0032B11D0012B13D1F868FFF799
:1048A0007FFB0446B868FFF785FA0346236009E0FA
:1048B0002A46B968F868FFF7C9FF03E02146F8689F
:1048C000FFF763FB002318461837BD46B0BD90B50F
:1048D00085B000AFF860B9603A71B868FDF76EFE58
:1048E00003461C68F868FFF78AFA03461946042055
:1048F000FFF79FFB0346002B00D01C601437BD461A
:1049000090BD90B585B000AF786039603868FDF72C
:1049100055FE0346224619467868FFF7D8FF14373C
:10492000BD4690BD90B583B000AF786039607B68BC
:104930001846FEF750FD3B681846FDF769FC034634
:10494000002B0FD07C683B461846FDF737FE034628
:1049500019462046FFF7D5FF7B68054ADA607B6879
:10496000044A9A607B6818460C37BD4690BD00BF6C
:10497000D73D000881480008B0B582B000AF78602C
:1049800039607B681846FEF793FB0346002B01D085
:1049900002F080FA7B68DC687D683B461846FEF7CB
:1049A0002FFA034619462846A0470837BD46B0BD32
:1049B00090B583B000AF78600B4B1B68043318468A
:1049C000FEF787FB0346002B0AD0074B1B681C1D14
:1049D0007868FCF754FA034619462046FFF7CCFFE7
:1049E0000C37BD4690BD00BFC800002090B583B015
:1049F00000AF78600B4B1B6804331846FEF769FB69
:104A00000346002B0AD0074B1B681C1D7868FCF777
:104A10005EFA034619462046FFF7AEFF0C37BD4647
:104A200090BD00BFC400002090B583B000AF786097
:104A30000B4B1B6804331846FEF74BFB0346002B59
:104A40000AD0074B1B681C1D7868FCF768FA034600
:104A500019462046FFF790FF0C37BD4690BD00BFBA
:104A6000C000002090B583B000AF78600B4B1B688E
:104A700004331846FEF72DFB0346002B0AD0074BE4
:104A80001B681C1D7868FCF772FA0346194620461D
:104A9000FFF772FF0C37BD4690BD00BFBC00002081
:104AA00090B583B000AF78600B4B1B680433184699
:104AB000FEF70FFB0346002B0AD0074B1B681C1D9B
:104AC0007868FCF77CFA034619462046FFF754FF46
:104AD0000C37BD4690BD00BFB800002090B583B034
:104AE00000AF78600B4B1B6804331846FEF7F1FAF1
:104AF0000346002B0AD0074B1B681C1D7868FCF787
:104B000086FA034619462046FFF736FF0C37BD46A6
:104B100090BD00BFB400002090B583B000AF7860B6
:104B20000B4B1B6804331846FEF7D3FA0346002BE1
:104B30000AD0074B1B681C1D7868FCF790FA0346E7
:104B400019462046FFF718FF0C37BD4690BD00BF41
:104B5000B000002090B583B000AF78600B4B1B68AD
:104B600004331846FEF7B5FA0346002B0AD0074B6C
:104B70001B681C1D7868FCF79AFA03461946204604
:104B8000FFF7FAFE0C37BD4690BD00BFAC00002019
:104B900090B583B000AF78600B4B1B6804331846A8
:104BA000FEF797FA0346002B0AD0074B1B681C1D23
:104BB0007868FCF7A4FA034619462046FFF7DCFEA6
:104BC0000C37BD4690BD00BFA800002090B583B053
:104BD00000AF78600B4B1B6804331846FEF779FA78
:104BE0000346002B0AD0074B1B681C1D7868FCF796
:104BF000AEFA034619462046FFF7BEFE0C37BD4607
:104C000090BD00BFA400002090B583B000AF7860D5
:104C10000B4B1B6804331846FEF75BFA0346002B68
:104C20000AD0074B1B681C1D7868FCF7B8FA0346CE
:104C300019462046FFF7A0FE0C37BD4690BD00BFC9
:104C4000A000002090B583B000AF78600B4B1B68CC
:104C500004331846FEF73DFA0346002B0AD0074BF3
:104C60001B681C1D7868FCF7C2FA034619462046EB
:104C7000FFF782FE0C37BD4690BD00BF9C000020B0
:104C800090B583B000AF78600B4B1B6804331846B7
:104C9000FEF71FFA0346002B0AD0074B1B681C1DAA
:104CA0007868FCF7CCFA034619462046FFF764FE05
:104CB0000C37BD4690BD00BF9800002090B583B072
:104CC00000AF78600B4B1B6804331846FEF701FAFF
:104CD0000346002B0AD0074B1B681C1D7868FCF7A5
:104CE000D6FA034619462046FFF746FE0C37BD4666
:104CF00090BD00BF9400002090B583B000AF7860F5
:104D00000B4B1B6804331846FEF7E3F90346002BF0
:104D10000AD0074B1B681C1D7868FCF7E0FA0346B5
:104D200019462046FFF728FE0C37BD4690BD00BF50
:104D30009000002090B583B000AF78600B4B1B68EB
:104D400004331846FEF7C5F90346002B0AD0074B7B
:104D50001B681C1D7868FCF7EAFA034619462046D2
:104D6000FFF70AFE0C37BD4690BD00BF8C00002047
:104D700080B582B000AF78607B681846FEF798F97E
:104D80000346002B01D002F085F87B68DB687A6867
:104D9000104698470837BD4680BD80B582B000AF49
:104DA000786001214FF08040FBF7DEFA7B68043326
:104DB00000211846FEF7ADF90346002B04D07B68AE
:104DC00004331846FFF7D4FF0837BD4680BD000006
:104DD00080B582B000AF786001210A48FBF7C4FAC1
:104DE0007B68043300211846FEF793F90346002B35
:104DF00004D07B6804331846FFF7BAFF0837BD4676
:104E000080BD00BF0004004080B582B000AF786074
:104E100039603B6803F00103002B09D07B68203325
:104E20001846FEF766F90346002B01D0012300E087
:104E30000023002B04D07B6820331846FFF798FF2F
:104E40000837BD4680BD80B582B000AF786039605C
:104E50007B681B6839681846FFF7D6FF0837BD46E0
:104E600080BD90B583B000AF786039607868FEF798
:104E700084FF04463868FDF7C3FF03461B681946E4
:104E80002046FFF7E0FF0C37BD4690BD80B582B0ED
:104E900000AF78607B68D3F81031002B05D1074B49
:104EA000074A5621074802F08FF87868FCF767FA3E
:104EB000034618460837BD4680BD00BF7C83000806
:104EC000888B00088883000880B582B000AF7860C6
:104ED00039607B681B6C3F2B05D9064B064A68215D
:104EE000064802F071F839687868FCF76EFA0837FE
:104EF000BD4680BDD8830008288B00088883000841
:104F000080B586B000AF7860464B1B683B61464B6E
:104F10001B68FB600023FB75FB6803F02003002B7C
:104F200025D0424B1B68DBB2FB727B68043318460A
:104F3000FCF787FA034683F00103DBB2002B07D0AE
:104F40007B68043307F10B0211461846FFF7BCFFDC
:104F50007B6804331846FCF768FA03461F2B8CBFA6
:104F600001230023DBB2002B01D00123FB753B6939
:104F700003F08003002B1BD0FB6803F08003002BA1
:104F800016D07B6850331846FCF73DFA0346002BD9
:104F900005D0244A3B6923F08003136008E07B6856
:104FA00050331846FFF772FF03461A461F4B1A602C
:104FB0003B6903F04003002B0FD0FB6803F0400374
:104FC000002B0AD0184B1B68174A23F040031360CC
:104FD000144A3B6943F001031360FB6803F01003BC
:104FE000002B03D0114B1B680123FB75FB7D002BAD
:104FF0000BD07B6803F5B67300211846FEF789F8DD
:105000000346002B01D0012300E00023002B05D034
:105010007B6803F5B6731846FFF7AAFE1837BD463E
:1050200080BD00BF0C100140001001400410014081
:1050300080B582B000AF78607B681B6C002B05D117
:10504000064B074A5621074801F0BEFF7868FCF777
:105050003FFB034618460837BD4680BD7C830008E9
:10506000C48A00088883000890B587B000AFF86054
:10507000B9607A607B68002B01D100232AE0BB680D
:105080007B61FB6804331846FCF7BEFB034683F0E4
:105090000103DBB2002B06D07B685A1E7A60002B1E
:1050A00001D0012300E00023002B10D02520FBF7C6
:1050B0008BF8FB681A1D7C69631C7B611046FFF747
:1050C000B7FF034623702520FBF78CF8D9E77A69F0
:1050D000BB68D31A18461C37BD4690BD80B584B056
:1050E00000AFF860B9607A603B60FEF799FF034655
:1050F0001A463B68934205D91C4B1D4AFE211D48A8
:1051000001F062FF1C4B00221A60FB681B7E002B23
:105110000CD0BB681A4607211848FBF7AAFB7B682E
:105120001A4607211548FBF797FB0BE07B681A46E8
:1051300007211248FBF79DFBBB681A4607210F4861
:10514000FBF78AFB3B689BB21A4607210B48FBF72B
:105150007DFBFB681846FCF7E5FAFB685B69064ACD
:1051600043F0010313601037BD4680BDEC83000897
:10517000288A00081C840008B864024000640240C9
:1051800080B582B000AF786039607B68D3F880303A
:10519000072B05D9064B074A6821074801F014FF81
:1051A00039687868FEF7F6FB0837BD4680BD00BF5A
:1051B000D8830008C48900088883000880B584B0BB
:1051C00000AF786039600023FB73FDF7BEFC7B689D
:1051D0001846FCF7DEFB034683F00103DBB2002B2D
:1051E00006D07B6839681846FFF7CAFF0123FB73B6
:1051F000FDF7B7FCFB7B18461037BD4680BD90B568
:1052000087B000AF78607B6803F57B747A6807F13C
:10521000080311461846FEF7D9FF07F1080319469F
:105220002046FFF7CBFF07F108031846FDF7EAFF1A
:105230001C37BD4690BD80B582B000AF78607B68FA
:105240001B681846FFF7DBFF0837BD4680BD80B5F9
:1052500082B000AF78607868FEF772FD03461846AA
:10526000FFF7E9FF0837BD4680BD000080B582B07A
:1052700000AF786039603B68D3F88030002B05D1EF
:10528000074B084A5621084801F09EFE7B683968A2
:105290001846FEF73DFB78680837BD4680BD00BF65
:1052A0007C8300086C8900088883000880B586B07C
:1052B00000AF78607B681846FCF7BDFB0346002B07
:1052C0000DD07B688C3300211846FDF722FF034682
:1052D000002B24D07B688C331846FFF749FD7B6890
:1052E0001846FCF7A8FB034683F00103DBB2002B52
:1052F000E0D0FDF72AFC7A6807F10803114618464A
:10530000FFF7B4FFFDF72DFC07F108031846FFF780
:105310002FFD07F108031846FDF774FFDFE700BF14
:10532000C8E7000080B584B000AFF860B9607A606B
:105330003B60FEF775FE03461A463B68934205D96B
:105340001C4B1D4AFE211D4801F03EFE1C4B002255
:105350001A60FB681B7E002B0CD0BB681A4600212C
:105360001848FBF786FA7B681A4600211548FBF7B8
:1053700073FA0BE07B681A4600211248FBF779FAB2
:10538000BB681A4600210F48FBF766FA3B689BB2E0
:105390001A4600210B48FBF759FAFB681846FCF740
:1053A00025FAFB685B69064A43F001031360103776
:1053B000BD4680BDEC830008D08800081C8400082E
:1053C000106402400064024090B585B000AF786080
:1053D0000A4BFB607B681C1D7B6830331846FCF76A
:1053E0003CFB01460923FA682046FFF79BFF04486F
:1053F000FBF724FB1437BD4690BD00BF4C20014095
:105400000020014090B58FB000AF78607B681C1D14
:105410007A6807F1080311461846FFF799F807F173
:10542000080319462046FEF7F7FA07F10803184665
:10543000FDF7E8FE7B68043302211846FCF7AEFD59
:105440007B68183302211846FCF796FD7B6803F54C
:10545000E2747A6807F1180311461846FEF7E2FF76
:1054600007F1180319462046FEF7C8FA07F118039A
:105470001846FDF7C7FE7868FDF781FB7B6803F1EE
:1054800048047A6807F1280311461846FEF734FFEE
:1054900007F1280319462046FEF7A1FA07F1280371
:1054A0001846FDF7AFFE7B6803F5E2731846FFF779
:1054B0008BFF7B6818331846FCF73CFD7B6803F5CF
:1054C0007B731846FFF7F2FE3C37BD4690BD80B5B2
:1054D00082B000AF78607868FFF794FF0023184629
:1054E0000837BD4680BD000080B584B000AFF860CD
:1054F000B9607A603B60FB681846FDF773F82B4A89
:10550000FB681A60FB68043339681846FEF7DEF959
:10551000BB68002B05D1264B264A3F21264801F0C7
:1055200053FDFB681846FCF7DDFEFDF7D7F8034690
:105530001846FAF7DBFFFDF74CF803461846FAF772
:10554000B5FF0023002200211C48FAF704FFFCF7F6
:105550006FFE0246BB68B2FBF3F3013B19461748E6
:10556000FAF7D6FE7B68013B19461448FAF7CEFEDF
:105570001248FAF7EBFE1148FAF7DEFEFB68043337
:105580001846FDF7B6FD0346002B03D001210B485A
:10559000FAF7F2FE1D20FAF709FE1D20FAF722FEA7
:1055A000FB6818461037BD4680BD00BF4C88000818
:1055B0007C840008A08700088C8400080004004058
:1055C00080B584B000AFF860B9607A603B60FB687A
:1055D0001846FDF721F82E4AFB681A60FB68043371
:1055E00039681846FEF772F9BB68002B05D1294BC4
:1055F000294A3F21294801F0E7FCFB681846FCF7DF
:105600008BFEFDF785F803461846FAF76FFFFCF7A7
:10561000F9FF03461846FAF749FF0023002200214C
:105620004FF08040FAF797FEFCF718FE0246BB6881
:10563000B2FBF3F3013B19464FF08040FAF768FEE6
:105640007B68013B19464FF08040FAF75FFE4FF050
:105650008040FAF77BFE4FF08040FAF772FEFB685D
:1056600004331846FDF745FD0346002B04D0012105
:105670004FF08040FAF780FE1C20FAF797FD1C20BF
:10568000FAF7B0FDFB6818461037BD4680BD00BF75
:10569000808700087C840008D48600088C84000879
:1056A00080B582B000AF78607868FDF773FD1C218B
:1056B000786801F0C9FB7B6818460837BD4680BD95
:1056C00080B582B000AF78607868FDF74FFD142197
:1056D000786801F0B9FB7B6818460837BD4680BD85
:1056E00080B582B000AF78607868FDF799FD4421FD
:1056F000786801F0A9FB7B6818460837BD4680BD75
:1057000080B582B000AF78607868FDF769FD1C2134
:10571000786801F099FB7B6818460837BD4680BD64
:1057200080B582B000AF78607868FDF745FD142140
:10573000786801F089FB7B6818460837BD4680BD54
:1057400080B582B000AF78607868FCF79DFF0421D7
:10575000786801F079FB7B6818460837BD4680BD44
:1057600080B582B000AF78607868FDF781FD4FF4B6
:10577000BE71786801F068FB7B6818460837BD4643
:1057800080BD80B582B000AF78607868FDF7A2FD7B
:105790001421786801F058FB7B6818460837BD462D
:1057A00080BD80B582B000AF78607868FDF7BEFD3F
:1057B0001421786801F048FB7B6818460837BD461D
:1057C00080BD80B586B000AFF860B9607A60BA6815
:1057D000FB68D31A7B617B69002B05D07B691A4675
:1057E000F968786802F004FB7B697A68134418460C
:1057F0001837BD4680BD80B586B000AFF860B9608F
:105800007A600123FB757A68B968F868FFF7D9FFF9
:10581000034618461837BD4680BDB0B584B000AF0A
:10582000F860B9607A60F868FBF744FE0446B8682F
:10583000FBF740FE05467868FBF73CFE03461A4638
:1058400029462046FFF7D7FF034618461037BD46C6
:10585000B0BD90B585B000AFF860B9607A60F86807
:10586000FBF717FE0446B868FBF713FE03467A6899
:1058700019462046FFF7D1FF034618461437BD46A8
:1058800090BD80B584B000AFF860B9607A607A6886
:10589000B968F868FFF7DDFF034618461037BD46C4
:1058A00080BD80B586B000AFF860B9607A60012332
:1058B000FB757A68B968F868FFF7E3FF0346184696
:1058C0001837BD4680BD80B584B000AFF860B960C0
:1058D0007A603B607A68B968F868FFF7E2FF0346D0
:1058E00018461037BD4680BD90B585B000AFF86052
:1058F000B9607A603B60F868FBF759FE0446B86807
:10590000FBF755FE01463B687A682046FFF7DBFF50
:10591000034618461437BD4690BD80B586B000AF2B
:10592000F860B9607A607B681B78FB75BA68FB68C1
:10593000D31A3B613B69002B05D0FB7D3A691946C0
:10594000F86802F06EFA1837BD4680BD80B584B0A5
:1059500000AFF860B9607A60FA68BB6813447A688F
:105960001946F868FFF7D9FFFA68BB681344184670
:105970001037BD4680BD80B584B000AFF860B96017
:105980007A60F868FBF796FD03467A68B9681846AE
:10599000FFF7DCFF034618461037BD4680BD80B5D3
:1059A00084B000AF786039600023FB7307F10F0308
:1059B0001A4639687868FFF7DEFF03461846103745
:1059C000BD4680BD80B584B000AF786039600123EA
:1059D000FB7339687868FFF7E2FF03461846103713
:1059E000BD4680BD80B584B000AFF860B9607A6014
:1059F000B968F868FFF7E6FF034618461037BD465A
:105A000080BD80B584B000AFF860B9607A60F86896
:105A1000FBF75BFD0246BB6893428CBF012300236A
:105A2000DBB2002B01D001F011FAB86801F0C8F91F
:105A3000034618461037BD4680BD80B582B000AF22
:105A400078603960002239687868FFF7DAFF03462A
:105A500018460837BD4680BD80B582B000AF78607B
:105A600039603B68002B06D07B6839681846FFF721
:105A7000E4FF034600E0002318460837BD4680BD1A
:105A800080B582B000AF786039607868FBF7DCFEE3
:105A900002463B6893422CBF01230023DBB2002B5C
:105AA00008D07868FBF7D0FE03461A4639680348E9
:105AB00001F0D5F90837BD4680BD00BFE884000875
:105AC00080B582B000AF7860396039687868FFF7D8
:105AD000D7FF39687868FBF7A8FE034618460837F1
